{
  "contractName": "MedicalRecord",
  "abi": [
    {
      "inputs": [
        {
          "name": "name",
          "type": "string"
        },
        {
          "name": "birthday",
          "type": "string"
        },
        {
          "name": "sex",
          "type": "uint256"
        },
        {
          "name": "phone",
          "type": "string"
        },
        {
          "name": "homeaddress",
          "type": "string"
        },
        {
          "name": "email",
          "type": "string"
        }
      ],
      "payable": false,
      "stateMutability": "nonpayable",
      "type": "constructor",
      "signature": "constructor"
    },
    {
      "constant": false,
      "inputs": [
        {
          "name": "doctor",
          "type": "address"
        },
        {
          "name": "name",
          "type": "string"
        },
        {
          "name": "times",
          "type": "uint256"
        }
      ],
      "name": "giveRightToOperate",
      "outputs": [],
      "payable": false,
      "stateMutability": "nonpayable",
      "type": "function",
      "signature": "0xc3717893"
    },
    {
      "constant": false,
      "inputs": [
        {
          "name": "diseasetype",
          "type": "string"
        }
      ],
      "name": "getRecord",
      "outputs": [
        {
          "components": [
            {
              "name": "name",
              "type": "string"
            },
            {
              "name": "birthday",
              "type": "string"
            },
            {
              "name": "sex",
              "type": "uint256"
            },
            {
              "name": "phone",
              "type": "string"
            },
            {
              "name": "homeaddress",
              "type": "string"
            },
            {
              "name": "email",
              "type": "string"
            },
            {
              "name": "accountaddress",
              "type": "address"
            }
          ],
          "name": "",
          "type": "tuple"
        },
        {
          "components": [
            {
              "name": "diseasetype",
              "type": "string"
            },
            {
              "name": "diseasename",
              "type": "string"
            },
            {
              "name": "symptom",
              "type": "string"
            },
            {
              "name": "treatment",
              "type": "string"
            },
            {
              "name": "doctorname",
              "type": "string"
            },
            {
              "name": "date",
              "type": "string"
            }
          ],
          "name": "",
          "type": "tuple[]"
        }
      ],
      "payable": false,
      "stateMutability": "nonpayable",
      "type": "function",
      "signature": "0x11dd8845"
    },
    {
      "constant": false,
      "inputs": [
        {
          "name": "_diseasetype",
          "type": "string"
        },
        {
          "name": "_diseasename",
          "type": "string"
        },
        {
          "name": "_symptom",
          "type": "string"
        },
        {
          "name": "_treatment",
          "type": "string"
        },
        {
          "name": "_date",
          "type": "string"
        }
      ],
      "name": "addRecord",
      "outputs": [],
      "payable": false,
      "stateMutability": "nonpayable",
      "type": "function",
      "signature": "0x2d1814f2"
    }
  ],
  "bytecode": "0x60806040523480156200001157600080fd5b5060405162001f2a38038062001f2a83398101806040526200003791908101906200023f565b33600260060160006101000a81548173ffffffffffffffffffffffffffffffffffffffff021916908373ffffffffffffffffffffffffffffffffffffffff1602179055508560026000019080519060200190620000969291906200011c565b508460026001019080519060200190620000b29291906200011c565b508360028001819055508260026003019080519060200190620000d79291906200011c565b508160026004019080519060200190620000f39291906200011c565b5080600260050190805190602001906200010f9291906200011c565b50505050505050620003ed565b828054600181600116156101000203166002900490600052602060002090601f016020900481019282601f106200015f57805160ff191683800117855562000190565b8280016001018555821562000190579182015b828111156200018f57825182559160200191906001019062000172565b5b5090506200019f9190620001a3565b5090565b620001c891905b80821115620001c4576000816000905550600101620001aa565b5090565b90565b600082601f8301121515620001df57600080fd5b8151620001f6620001f08262000380565b62000352565b915080825260208301602083018583830111156200021357600080fd5b62000220838284620003b7565b50505092915050565b6000620002378251620003ad565b905092915050565b60008060008060008060c087890312156200025957600080fd5b600087015167ffffffffffffffff8111156200027457600080fd5b6200028289828a01620001cb565b965050602087015167ffffffffffffffff811115620002a057600080fd5b620002ae89828a01620001cb565b9550506040620002c189828a0162000229565b945050606087015167ffffffffffffffff811115620002df57600080fd5b620002ed89828a01620001cb565b935050608087015167ffffffffffffffff8111156200030b57600080fd5b6200031989828a01620001cb565b92505060a087015167ffffffffffffffff8111156200033757600080fd5b6200034589828a01620001cb565b9150509295509295509295565b6000604051905081810181811067ffffffffffffffff821117156200037657600080fd5b8060405250919050565b600067ffffffffffffffff8211156200039857600080fd5b601f19601f8301169050602081019050919050565b6000819050919050565b60005b83811015620003d7578082015181840152602081019050620003ba565b83811115620003e7576000848401525b50505050565b611b2d80620003fd6000396000f3fe608060405260043610610057576000357c0100000000000000000000000000000000000000000000000000000000900463ffffffff16806311dd88451461005c5780632d1814f21461009a578063c3717893146100c3575b600080fd5b34801561006857600080fd5b50610083600480360361007e91908101906114bb565b6100ec565b604051610091929190611988565b60405180910390f35b3480156100a657600080fd5b506100c160048036036100bc91908101906114fc565b610cc7565b005b3480156100cf57600080fd5b506100ea60048036036100e59190810190611454565b610f6e565b005b6100f46110eb565b60606000600960003373ffffffffffffffffffffffffffffffffffffffff1673ffffffffffffffffffffffffffffffffffffffff168152602001908152602001600020905060008160000154118061019c5750600260060160009054906101000a900473ffffffffffffffffffffffffffffffffffffffff1673ffffffffffffffffffffffffffffffffffffffff163373ffffffffffffffffffffffffffffffffffffffff16145b15156101dd576040517f08c379a00000000000000000000000000000000000000000000000000000000081526004016101d490611968565b60405180910390fd5b600060018054905011156101fa57600160006101f9919061113f565b5b60008090505b6000805490508110156104e95760008181548110151561021c57fe5b9060005260206000209060060201600001805460018160011615610100020316600290049050855114156104dc5760008090505b855181101561039257858181518110151561026757fe5b9060200101517f010000000000000000000000000000000000000000000000000000000000000090047f0100000000000000000000000000000000000000000000000000000000000000027effffffffffffffffffffffffffffffffffffffffffffffffffffffffffffff19166000838154811015156102e357fe5b906000526020600020906006020160000182815460018160011615610100020316600290048110151561031257fe5b8154600116156103315790600052602060002090602091828204019190065b9054901a7f0100000000000000000000000000000000000000000000000000000000000000027effffffffffffffffffffffffffffffffffffffffffffffffffffffffffffff191614151561038557610392565b8080600101915050610250565b8551811015156104da5760016000838154811015156103ad57fe5b9060005260206000209060060201908060018154018082558091505090600182039060005260206000209060060201600090919290919091506000820181600001908054600181600116156101000203166002900461040d929190611163565b5060018201816001019080546001816001161561010002031660029004610435929190611163565b506002820181600201908054600181600116156101000203166002900461045d929190611163565b5060038201816003019080546001816001161561010002031660029004610485929190611163565b50600482018160040190805460018160011615610100020316600290046104ad929190611163565b50600582018160050190805460018160011615610100020316600290046104d5929190611163565b505050505b505b8080600101915050610200565b5060018160000154038160000181905550600260018160e06040519081016040529081600082018054600181600116156101000203166002900480601f0160208091040260200160405190810160405280929190818152602001828054600181600116156101000203166002900480156105a45780601f10610579576101008083540402835291602001916105a4565b820191906000526020600020905b81548152906001019060200180831161058757829003601f168201915b50505050508152602001600182018054600181600116156101000203166002900480601f0160208091040260200160405190810160405280929190818152602001828054600181600116156101000203166002900480156106465780601f1061061b57610100808354040283529160200191610646565b820191906000526020600020905b81548152906001019060200180831161062957829003601f168201915b5050505050815260200160028201548152602001600382018054600181600116156101000203166002900480601f0160208091040260200160405190810160405280929190818152602001828054600181600116156101000203166002900480156106f25780601f106106c7576101008083540402835291602001916106f2565b820191906000526020600020905b8154815290600101906020018083116106d557829003601f168201915b50505050508152602001600482018054600181600116156101000203166002900480601f0160208091040260200160405190810160405280929190818152602001828054600181600116156101000203166002900480156107945780601f1061076957610100808354040283529160200191610794565b820191906000526020600020905b81548152906001019060200180831161077757829003601f168201915b50505050508152602001600582018054600181600116156101000203166002900480601f0160208091040260200160405190810160405280929190818152602001828054600181600116156101000203166002900480156108365780601f1061080b57610100808354040283529160200191610836565b820191906000526020600020905b81548152906001019060200180831161081957829003601f168201915b505050505081526020016006820160009054906101000a900473ffffffffffffffffffffffffffffffffffffffff1673ffffffffffffffffffffffffffffffffffffffff1673ffffffffffffffffffffffffffffffffffffffff1681525050915080805480602002602001604051908101604052809291908181526020016000905b82821015610cb7578382906000526020600020906006020160c06040519081016040529081600082018054600181600116156101000203166002900480601f0160208091040260200160405190810160405280929190818152602001828054600181600116156101000203166002900480156109755780601f1061094a57610100808354040283529160200191610975565b820191906000526020600020905b81548152906001019060200180831161095857829003601f168201915b50505050508152602001600182018054600181600116156101000203166002900480601f016020809104026020016040519081016040528092919081815260200182805460018160011615610100020316600290048015610a175780601f106109ec57610100808354040283529160200191610a17565b820191906000526020600020905b8154815290600101906020018083116109fa57829003601f168201915b50505050508152602001600282018054600181600116156101000203166002900480601f016020809104026020016040519081016040528092919081815260200182805460018160011615610100020316600290048015610ab95780601f10610a8e57610100808354040283529160200191610ab9565b820191906000526020600020905b815481529060010190602001808311610a9c57829003601f168201915b50505050508152602001600382018054600181600116156101000203166002900480601f016020809104026020016040519081016040528092919081815260200182805460018160011615610100020316600290048015610b5b5780601f10610b3057610100808354040283529160200191610b5b565b820191906000526020600020905b815481529060010190602001808311610b3e57829003601f168201915b50505050508152602001600482018054600181600116156101000203166002900480601f016020809104026020016040519081016040528092919081815260200182805460018160011615610100020316600290048015610bfd5780601f10610bd257610100808354040283529160200191610bfd565b820191906000526020600020905b815481529060010190602001808311610be057829003601f168201915b50505050508152602001600582018054600181600116156101000203166002900480601f016020809104026020016040519081016040528092919081815260200182805460018160011615610100020316600290048015610c9f5780601f10610c7457610100808354040283529160200191610c9f565b820191906000526020600020905b815481529060010190602001808311610c8257829003601f168201915b505050505081525050815260200190600101906108b8565b5050505090509250925050915091565b6000600960003373ffffffffffffffffffffffffffffffffffffffff1673ffffffffffffffffffffffffffffffffffffffff1681526020019081526020016000209050600081600001541180610d6d5750600260060160009054906101000a900473ffffffffffffffffffffffffffffffffffffffff1673ffffffffffffffffffffffffffffffffffffffff163373ffffffffffffffffffffffffffffffffffffffff16145b1515610dae576040517f08c379a0000000000000000000000000000000000000000000000000000000008152600401610da590611968565b60405180910390fd5b600060c060405190810160405280888152602001878152602001868152602001858152602001836001018054600181600116156101000203166002900480601f016020809104026020016040519081016040528092919081815260200182805460018160011615610100020316600290048015610e6c5780601f10610e4157610100808354040283529160200191610e6c565b820191906000526020600020905b815481529060010190602001808311610e4f57829003601f168201915b5050505050815260200184815250908060018154018082558091505090600182039060005260206000209060060201600090919290919091506000820151816000019080519060200190610ec19291906111ea565b506020820151816001019080519060200190610ede9291906111ea565b506040820151816002019080519060200190610efb9291906111ea565b506060820151816003019080519060200190610f189291906111ea565b506080820151816004019080519060200190610f359291906111ea565b5060a0820151816005019080519060200190610f529291906111ea565b5050505060018160000154038160000181905550505050505050565b600260060160009054906101000a900473ffffffffffffffffffffffffffffffffffffffff1673ffffffffffffffffffffffffffffffffffffffff163373ffffffffffffffffffffffffffffffffffffffff16141515611003576040517f08c379a0000000000000000000000000000000000000000000000000000000008152600401610ffa90611948565b60405180910390fd5b600081111515611048576040517f08c379a000000000000000000000000000000000000000000000000000000000815260040161103f90611928565b60405180910390fd5b80600960008573ffffffffffffffffffffffffffffffffffffffff1673ffffffffffffffffffffffffffffffffffffffff1681526020019081526020016000206000018190555081600960008573ffffffffffffffffffffffffffffffffffffffff1673ffffffffffffffffffffffffffffffffffffffff16815260200190815260200160002060010190805190602001906110e592919061126a565b50505050565b60e060405190810160405280606081526020016060815260200160008152602001606081526020016060815260200160608152602001600073ffffffffffffffffffffffffffffffffffffffff1681525090565b508054600082556006029060005260206000209081019061116091906112ea565b50565b828054600181600116156101000203166002900490600052602060002090601f016020900481019282601f1061119c57805485556111d9565b828001600101855582156111d957600052602060002091601f016020900482015b828111156111d85782548255916001019190600101906111bd565b5b5090506111e69190611369565b5090565b828054600181600116156101000203166002900490600052602060002090601f016020900481019282601f1061122b57805160ff1916838001178555611259565b82800160010185558215611259579182015b8281111561125857825182559160200191906001019061123d565b5b5090506112669190611369565b5090565b828054600181600116156101000203166002900490600052602060002090601f016020900481019282601f106112ab57805160ff19168380011785556112d9565b828001600101855582156112d9579182015b828111156112d85782518255916020019190600101906112bd565b5b5090506112e69190611369565b5090565b61136691905b808211156113625760008082016000611309919061138e565b600182016000611319919061138e565b600282016000611329919061138e565b600382016000611339919061138e565b600482016000611349919061138e565b600582016000611359919061138e565b506006016112f0565b5090565b90565b61138b91905b8082111561138757600081600090555060010161136f565b5090565b90565b50805460018160011615610100020316600290046000825580601f106113b457506113d3565b601f0160209004906000526020600020908101906113d29190611369565b5b50565b60006113e28235611a84565b905092915050565b600082601f83011215156113fd57600080fd5b813561141061140b826119ec565b6119bf565b9150808252602083016020830185838301111561142c57600080fd5b611437838284611aa0565b50505092915050565b600061144c8235611a96565b905092915050565b60008060006060848603121561146957600080fd5b6000611477868287016113d6565b935050602084013567ffffffffffffffff81111561149457600080fd5b6114a0868287016113ea565b92505060406114b186828701611440565b9150509250925092565b6000602082840312156114cd57600080fd5b600082013567ffffffffffffffff8111156114e757600080fd5b6114f3848285016113ea565b91505092915050565b600080600080600060a0868803121561151457600080fd5b600086013567ffffffffffffffff81111561152e57600080fd5b61153a888289016113ea565b955050602086013567ffffffffffffffff81111561155757600080fd5b611563888289016113ea565b945050604086013567ffffffffffffffff81111561158057600080fd5b61158c888289016113ea565b935050606086013567ffffffffffffffff8111156115a957600080fd5b6115b5888289016113ea565b925050608086013567ffffffffffffffff8111156115d257600080fd5b6115de888289016113ea565b9150509295509295909350565b6115f481611a48565b82525050565b600061160582611a25565b8084526020840193508360208202850161161e85611a18565b60005b848110156116575783830388526116398383516117b5565b925061164482611a3b565b9150602088019750600181019050611621565b508196508694505050505092915050565b600061167382611a30565b808452611687816020860160208601611aaf565b61169081611ae2565b602085010191505092915050565b6000602282527f4f7065726174652074696d65732073686f756c64206c6172676572207468616e60208301527f20300000000000000000000000000000000000000000000000000000000000006040830152606082019050919050565b6000603982527f4f6e6c79206f776e65722063616e206769766520726967687420746f206f706560208301527f726174652074686973204d65646963616c205265636f72642e000000000000006040830152606082019050919050565b6000603382527f596f7520646f6e2774206861766520726967687420746f206f7065726174652060208301527f74686973204d65646963616c205265636f7264000000000000000000000000006040830152606082019050919050565b600060c08301600083015184820360008601526117d28282611668565b915050602083015184820360208601526117ec8282611668565b915050604083015184820360408601526118068282611668565b915050606083015184820360608601526118208282611668565b9150506080830151848203608086015261183a8282611668565b91505060a083015184820360a08601526118548282611668565b9150508091505092915050565b600060e083016000830151848203600086015261187e8282611668565b915050602083015184820360208601526118988282611668565b91505060408301516118ad6040860182611919565b50606083015184820360608601526118c58282611668565b915050608083015184820360808601526118df8282611668565b91505060a083015184820360a08601526118f98282611668565b91505060c083015161190e60c08601826115eb565b508091505092915050565b61192281611a7a565b82525050565b600060208201905081810360008301526119418161169e565b9050919050565b60006020820190508181036000830152611961816116fb565b9050919050565b6000602082019050818103600083015261198181611758565b9050919050565b600060408201905081810360008301526119a28185611861565b905081810360208301526119b681846115fa565b90509392505050565b6000604051905081810181811067ffffffffffffffff821117156119e257600080fd5b8060405250919050565b600067ffffffffffffffff821115611a0357600080fd5b601f19601f8301169050602081019050919050565b6000602082019050919050565b600081519050919050565b600081519050919050565b6000602082019050919050565b6000611a5382611a5a565b9050919050565b600073ffffffffffffffffffffffffffffffffffffffff82169050919050565b6000819050919050565b6000611a8f82611a5a565b9050919050565b6000819050919050565b82818337600083830152505050565b60005b83811015611acd578082015181840152602081019050611ab2565b83811115611adc576000848401525b50505050565b6000601f19601f830116905091905056fea265627a7a72305820fdff74ba196a10d7e542104e1ef5a965734af44b492349e5c5d46b453b2cbd336c6578706572696d656e74616cf50037",
  "source": "pragma solidity ^0.5.0;\r\npragma experimental ABIEncoderV2;\r\n\r\n \r\ncontract MedicalRecord{\r\n\t\r\n\t//Define disease strcut\r\n\r\n\tstruct Disease{\r\n\t\t\r\n\t\tstring diseasetype;\r\n\t\tstring diseasename;\r\n\t\tstring symptom;\r\n\t\tstring treatment;\r\n\t\tstring doctorname;\r\n\t\tstring date;\r\n\t\r\n\t}\r\n\t\r\n\tstruct Owner{\r\n\t    \r\n\t    string name;\r\n\t    string birthday;\r\n\t    uint sex;\r\n\t    string phone;\r\n\t    string homeaddress;\r\n\t    string email;\r\n\t    address accountaddress;\r\n\t \r\n\t}\r\n\t\r\n\t//MedicalRecord\r\n\t\r\n\tDisease[] records;\r\n\t\r\n\t//Get return records\r\n\t\r\n\tDisease[] ret;\r\n\t\r\n\t//Define doctor\r\n\t\r\n\tstruct Doctor{\r\n\t\t\r\n\t\tuint operatetime;\r\n\t\tstring name;\r\n\t\t\r\n\t}\r\n\t\r\n\t//MedicalRecord's owner\r\n\t\r\n\tOwner owner;\r\n\t\r\n\t//doctor who has right to operate this MedicalRecord\r\n\t\r\n\tmapping(address => Doctor) authorizedoctor;\r\n\t\r\n\t//Owner's information\r\n\t\r\n\tconstructor(string memory name, string memory birthday, uint sex, string memory phone, string memory homeaddress, string memory email) public{\r\n\t\t\r\n\t\towner.accountaddress = msg.sender;\r\n\t\towner.name = name;\r\n\t\towner.birthday = birthday;\r\n\t\towner.sex = sex;\r\n\t\towner.phone = phone;\r\n\t\towner.homeaddress = homeaddress;\r\n\t\towner.email = email;\r\n\t\t\r\n\t\r\n\t}\r\n\t\r\n\t//give right to a doctor to operate this MedicalRecord\r\n\t\r\n\tfunction giveRightToOperate(address doctor,string memory name, uint times) public {\r\n\t    \r\n\t\trequire(msg.sender == owner.accountaddress,\"Only owner can give right to operate this Medical Record.\");\r\n\t\trequire(times > 0, \"Operate times should larger than 0\");\r\n\t\tauthorizedoctor[doctor].operatetime = times;\r\n\t\tauthorizedoctor[doctor].name = name;\r\n\t\t\r\n\t}\r\n\t\r\n\tfunction getRecord(string memory diseasetype) public returns(Owner memory, Disease[] memory){\r\n\t\tDoctor storage doctor = authorizedoctor[msg.sender];\r\n\t\trequire(doctor.operatetime > 0 || msg.sender == owner.accountaddress, \"You don't have right to operate this Medical Record\");\r\n\t    if(ret.length > 0)delete ret;\r\n\t\t\r\n\t\tfor(uint i = 0; i < records.length; i ++){\r\n\t\t    if(bytes(diseasetype).length == bytes(records[i].diseasetype).length){\r\n\t\t        uint j = 0;\r\n\t\t        for (; j < bytes(diseasetype).length; j ++) {\r\n                    if(bytes(records[i].diseasetype)[j] != bytes(diseasetype)[j]) {\r\n                        break;\r\n                    }\r\n                }\r\n                if(j >= bytes(diseasetype).length){\r\n                    ret.push(records[i]);\r\n                }\r\n                \r\n\t\t    }\r\n\t\t}\r\n\t\tdoctor.operatetime = doctor.operatetime - 1;\r\n\t\treturn (owner,ret);\r\n\t\t\r\n\t}\r\n\t\r\n\tfunction addRecord(string memory _diseasetype, string memory _diseasename,string memory _symptom,string memory _treatment, string memory _date) public {\r\n\r\n\t    Doctor storage doctor = authorizedoctor[msg.sender];\r\n\t    require(doctor.operatetime > 0 || msg.sender == owner.accountaddress, \"You don't have right to operate this Medical Record\");\r\n\t    records.push(Disease({diseasetype:_diseasetype,diseasename:_diseasename,symptom:_symptom,treatment:_treatment,doctorname:doctor.name, date:_date\r\n\t    }));\r\n\t    doctor.operatetime = doctor.operatetime - 1;\r\n\t    \r\n\t}\r\n\t\r\n}",
  "sourcePath": "D:/Study/BlockChain/MedicalRecord/contracts/MedicalRecord.sol",
  "compiler": {
    "name": "solc",
    "version": "0.5.0+commit.1d4f565a.Emscripten.clang"
  },
  "schemaVersion": "3.0.0",
  "updatedAt": "2018-12-31T04:21:56.301Z",
  "devdoc": {
    "methods": {}
  },
  "userdoc": {
    "methods": {}
  }
}