{
  "contractName": "MedicalRecord",
  "abi": [
    {
      "inputs": [
        {
          "name": "name",
          "type": "string"
        },
        {
          "name": "birthday",
          "type": "string"
        },
        {
          "name": "sex",
          "type": "uint256"
        },
        {
          "name": "phone",
          "type": "string"
        },
        {
          "name": "homeaddress",
          "type": "string"
        },
        {
          "name": "email",
          "type": "string"
        }
      ],
      "payable": false,
      "stateMutability": "nonpayable",
      "type": "constructor",
      "signature": "constructor"
    },
    {
      "anonymous": false,
      "inputs": [
        {
          "indexed": true,
          "name": "_from",
          "type": "address"
        },
        {
          "indexed": false,
          "name": "_value",
          "type": "string"
        }
      ],
      "name": "returnValue",
      "type": "event",
      "signature": "0x5bc70d54d856a381ba01299c4e0a8b21e0f99c06e181dac0560b278afd6e568a"
    },
    {
      "constant": false,
      "inputs": [
        {
          "name": "_a",
          "type": "string"
        },
        {
          "name": "_b",
          "type": "string"
        }
      ],
      "name": "strConcat",
      "outputs": [
        {
          "name": "",
          "type": "string"
        }
      ],
      "payable": false,
      "stateMutability": "nonpayable",
      "type": "function",
      "signature": "0xff74927b"
    },
    {
      "constant": false,
      "inputs": [
        {
          "name": "doctor",
          "type": "address"
        },
        {
          "name": "name",
          "type": "string"
        },
        {
          "name": "times",
          "type": "uint256"
        }
      ],
      "name": "giveRightToOperate",
      "outputs": [],
      "payable": false,
      "stateMutability": "nonpayable",
      "type": "function",
      "signature": "0xc3717893"
    },
    {
      "constant": false,
      "inputs": [
        {
          "name": "diseasetype",
          "type": "string"
        }
      ],
      "name": "getRecord",
      "outputs": [],
      "payable": false,
      "stateMutability": "nonpayable",
      "type": "function",
      "signature": "0x11dd8845"
    },
    {
      "constant": false,
      "inputs": [
        {
          "name": "_diseasetype",
          "type": "string"
        },
        {
          "name": "_diseasename",
          "type": "string"
        },
        {
          "name": "_symptom",
          "type": "string"
        },
        {
          "name": "_treatment",
          "type": "string"
        },
        {
          "name": "_date",
          "type": "string"
        }
      ],
      "name": "addRecord",
      "outputs": [],
      "payable": false,
      "stateMutability": "nonpayable",
      "type": "function",
      "signature": "0x2d1814f2"
    }
  ],
  "bytecode": "0x60806040523480156200001157600080fd5b50604051620023bc380380620023bc83398101806040526200003791908101906200023f565b33600260060160006101000a81548173ffffffffffffffffffffffffffffffffffffffff021916908373ffffffffffffffffffffffffffffffffffffffff1602179055508560026000019080519060200190620000969291906200011c565b508460026001019080519060200190620000b29291906200011c565b508360028001819055508260026003019080519060200190620000d79291906200011c565b508160026004019080519060200190620000f39291906200011c565b5080600260050190805190602001906200010f9291906200011c565b50505050505050620003ed565b828054600181600116156101000203166002900490600052602060002090601f016020900481019282601f106200015f57805160ff191683800117855562000190565b8280016001018555821562000190579182015b828111156200018f57825182559160200191906001019062000172565b5b5090506200019f9190620001a3565b5090565b620001c891905b80821115620001c4576000816000905550600101620001aa565b5090565b90565b600082601f8301121515620001df57600080fd5b8151620001f6620001f08262000380565b62000352565b915080825260208301602083018583830111156200021357600080fd5b62000220838284620003b7565b50505092915050565b6000620002378251620003ad565b905092915050565b60008060008060008060c087890312156200025957600080fd5b600087015167ffffffffffffffff8111156200027457600080fd5b6200028289828a01620001cb565b965050602087015167ffffffffffffffff811115620002a057600080fd5b620002ae89828a01620001cb565b9550506040620002c189828a0162000229565b945050606087015167ffffffffffffffff811115620002df57600080fd5b620002ed89828a01620001cb565b935050608087015167ffffffffffffffff8111156200030b57600080fd5b6200031989828a01620001cb565b92505060a087015167ffffffffffffffff8111156200033757600080fd5b6200034589828a01620001cb565b9150509295509295509295565b6000604051905081810181811067ffffffffffffffff821117156200037657600080fd5b8060405250919050565b600067ffffffffffffffff8211156200039857600080fd5b601f19601f8301169050602081019050919050565b6000819050919050565b60005b83811015620003d7578082015181840152602081019050620003ba565b83811115620003e7576000848401525b50505050565b611fbf80620003fd6000396000f3fe608060405260043610610062576000357c0100000000000000000000000000000000000000000000000000000000900463ffffffff16806311dd8845146100675780632d1814f214610090578063c3717893146100b9578063ff74927b146100e2575b600080fd5b34801561007357600080fd5b5061008e60048036036100899190810190611b27565b61011f565b005b34801561009c57600080fd5b506100b760048036036100b29190810190611bd4565b6111b4565b005b3480156100c557600080fd5b506100e060048036036100db9190810190611ac0565b61145b565b005b3480156100ee57600080fd5b5061010960048036036101049190810190611b68565b6115d8565b6040516101169190611e10565b60405180910390f35b6000600960003373ffffffffffffffffffffffffffffffffffffffff1673ffffffffffffffffffffffffffffffffffffffff16815260200190815260200160002090506000816000015411806101c55750600260060160009054906101000a900473ffffffffffffffffffffffffffffffffffffffff1673ffffffffffffffffffffffffffffffffffffffff163373ffffffffffffffffffffffffffffffffffffffff16145b1515610206576040517f08c379a00000000000000000000000000000000000000000000000000000000081526004016101fd90611e72565b60405180910390fd5b60006001805490501115610223576001600061022291906117ab565b5b60008090505b6000805490508110156105125760008181548110151561024557fe5b9060005260206000209060060201600001805460018160011615610100020316600290049050835114156105055760008090505b83518110156103bb57838181518110151561029057fe5b9060200101517f010000000000000000000000000000000000000000000000000000000000000090047f0100000000000000000000000000000000000000000000000000000000000000027effffffffffffffffffffffffffffffffffffffffffffffffffffffffffffff191660008381548110151561030c57fe5b906000526020600020906006020160000182815460018160011615610100020316600290048110151561033b57fe5b81546001161561035a5790600052602060002090602091828204019190065b9054901a7f0100000000000000000000000000000000000000000000000000000000000000027effffffffffffffffffffffffffffffffffffffffffffffffffffffffffffff19161415156103ae576103bb565b8080600101915050610279565b8351811015156105035760016000838154811015156103d657fe5b906000526020600020906006020190806001815401808255809150509060018203906000526020600020906006020160009091929091909150600082018160000190805460018160011615610100020316600290046104369291906117cf565b506001820181600101908054600181600116156101000203166002900461045e9291906117cf565b50600282018160020190805460018160011615610100020316600290046104869291906117cf565b50600382018160030190805460018160011615610100020316600290046104ae9291906117cf565b50600482018160040190805460018160011615610100020316600290046104d69291906117cf565b50600582018160050190805460018160011615610100020316600290046104fe9291906117cf565b505050505b505b8080600101915050610229565b5060018160000154038160000181905550606060206040519081016040528060008152509050610577816040805190810160405280601681526020017f506572736f6e616c20696e666f726d6174696f6e3a0a000000000000000000008152506115d8565b90506105b8816040805190810160405280600781526020017f0a6e616d653a20000000000000000000000000000000000000000000000000008152506115d8565b90506106618160026000018054600181600116156101000203166002900480601f0160208091040260200160405190810160405280929190818152602001828054600181600116156101000203166002900480156106575780601f1061062c57610100808354040283529160200191610657565b820191906000526020600020905b81548152906001019060200180831161063a57829003601f168201915b50505050506115d8565b90506106a2816040805190810160405280600b81526020017f0a62697274686461793a200000000000000000000000000000000000000000008152506115d8565b905061074b8160026001018054600181600116156101000203166002900480601f0160208091040260200160405190810160405280929190818152602001828054600181600116156101000203166002900480156107415780601f1061071657610100808354040283529160200191610741565b820191906000526020600020905b81548152906001019060200180831161072457829003601f168201915b50505050506115d8565b905061078c816040805190810160405280600981526020017f0a67656e6465723a2000000000000000000000000000000000000000000000008152506115d8565b90506001600280015414156107e1576107da816040805190810160405280600481526020017f6d616c65000000000000000000000000000000000000000000000000000000008152506115d8565b9050610823565b610820816040805190810160405280600681526020017f66656d616c6500000000000000000000000000000000000000000000000000008152506115d8565b90505b610862816040805190810160405280600881526020017f0a70686f6e653a200000000000000000000000000000000000000000000000008152506115d8565b905061090b8160026003018054600181600116156101000203166002900480601f0160208091040260200160405190810160405280929190818152602001828054600181600116156101000203166002900480156109015780601f106108d657610100808354040283529160200191610901565b820191906000526020600020905b8154815290600101906020018083116108e457829003601f168201915b50505050506115d8565b905061094c816040805190810160405280600f81526020017f0a686f6d6520616464726573733a2000000000000000000000000000000000008152506115d8565b90506109f58160026004018054600181600116156101000203166002900480601f0160208091040260200160405190810160405280929190818152602001828054600181600116156101000203166002900480156109eb5780601f106109c0576101008083540402835291602001916109eb565b820191906000526020600020905b8154815290600101906020018083116109ce57829003601f168201915b50505050506115d8565b9050610a36816040805190810160405280600881526020017f0a656d61696c3a200000000000000000000000000000000000000000000000008152506115d8565b9050610adf8160026005018054600181600116156101000203166002900480601f016020809104026020016040519081016040528092919081815260200182805460018160011615610100020316600290048015610ad55780601f10610aaa57610100808354040283529160200191610ad5565b820191906000526020600020905b815481529060010190602001808311610ab857829003601f168201915b50505050506115d8565b9050610b20816040805190810160405280601381526020017f0a0a0a0a4d65646963616c205265636f72643a000000000000000000000000008152506115d8565b905060008090505b60018054905081101561116057610b74826040805190810160405280600f81526020017f0a0a64697365617365747970653a2000000000000000000000000000000000008152506115d8565b9150610c3882600183815481101515610b8957fe5b90600052602060002090600602016000018054600181600116156101000203166002900480601f016020809104026020016040519081016040528092919081815260200182805460018160011615610100020316600290048015610c2e5780601f10610c0357610100808354040283529160200191610c2e565b820191906000526020600020905b815481529060010190602001808311610c1157829003601f168201915b50505050506115d8565b9150610c79826040805190810160405280600e81526020017f0a646973656173656e616d653a200000000000000000000000000000000000008152506115d8565b9150610d3d82600183815481101515610c8e57fe5b90600052602060002090600602016001018054600181600116156101000203166002900480601f016020809104026020016040519081016040528092919081815260200182805460018160011615610100020316600290048015610d335780601f10610d0857610100808354040283529160200191610d33565b820191906000526020600020905b815481529060010190602001808311610d1657829003601f168201915b50505050506115d8565b9150610d7e826040805190810160405280600a81526020017f0a73796d70746f6d3a20000000000000000000000000000000000000000000008152506115d8565b9150610e4282600183815481101515610d9357fe5b90600052602060002090600602016002018054600181600116156101000203166002900480601f016020809104026020016040519081016040528092919081815260200182805460018160011615610100020316600290048015610e385780601f10610e0d57610100808354040283529160200191610e38565b820191906000526020600020905b815481529060010190602001808311610e1b57829003601f168201915b50505050506115d8565b9150610e83826040805190810160405280600c81526020017f0a74726561746d656e743a2000000000000000000000000000000000000000008152506115d8565b9150610f4782600183815481101515610e9857fe5b90600052602060002090600602016003018054600181600116156101000203166002900480601f016020809104026020016040519081016040528092919081815260200182805460018160011615610100020316600290048015610f3d5780601f10610f1257610100808354040283529160200191610f3d565b820191906000526020600020905b815481529060010190602001808311610f2057829003601f168201915b50505050506115d8565b9150610f88826040805190810160405280600d81526020017f0a646f63746f726e616d653a20000000000000000000000000000000000000008152506115d8565b915061104c82600183815481101515610f9d57fe5b90600052602060002090600602016004018054600181600116156101000203166002900480601f0160208091040260200160405190810160405280929190818152602001828054600181600116156101000203166002900480156110425780601f1061101757610100808354040283529160200191611042565b820191906000526020600020905b81548152906001019060200180831161102557829003601f168201915b50505050506115d8565b915061108d826040805190810160405280600781526020017f0a646174653a20000000000000000000000000000000000000000000000000008152506115d8565b9150611151826001838154811015156110a257fe5b90600052602060002090600602016005018054600181600116156101000203166002900480601f0160208091040260200160405190810160405280929190818152602001828054600181600116156101000203166002900480156111475780601f1061111c57610100808354040283529160200191611147565b820191906000526020600020905b81548152906001019060200180831161112a57829003601f168201915b50505050506115d8565b91508080600101915050610b28565b503373ffffffffffffffffffffffffffffffffffffffff167f5bc70d54d856a381ba01299c4e0a8b21e0f99c06e181dac0560b278afd6e568a826040516111a79190611e10565b60405180910390a2505050565b6000600960003373ffffffffffffffffffffffffffffffffffffffff1673ffffffffffffffffffffffffffffffffffffffff168152602001908152602001600020905060008160000154118061125a5750600260060160009054906101000a900473ffffffffffffffffffffffffffffffffffffffff1673ffffffffffffffffffffffffffffffffffffffff163373ffffffffffffffffffffffffffffffffffffffff16145b151561129b576040517f08c379a000000000000000000000000000000000000000000000000000000000815260040161129290611e72565b60405180910390fd5b600060c060405190810160405280888152602001878152602001868152602001858152602001836001018054600181600116156101000203166002900480601f0160208091040260200160405190810160405280929190818152602001828054600181600116156101000203166002900480156113595780601f1061132e57610100808354040283529160200191611359565b820191906000526020600020905b81548152906001019060200180831161133c57829003601f168201915b50505050508152602001848152509080600181540180825580915050906001820390600052602060002090600602016000909192909190915060008201518160000190805190602001906113ae929190611856565b5060208201518160010190805190602001906113cb929190611856565b5060408201518160020190805190602001906113e8929190611856565b506060820151816003019080519060200190611405929190611856565b506080820151816004019080519060200190611422929190611856565b5060a082015181600501908051906020019061143f929190611856565b5050505060018160000154038160000181905550505050505050565b600260060160009054906101000a900473ffffffffffffffffffffffffffffffffffffffff1673ffffffffffffffffffffffffffffffffffffffff163373ffffffffffffffffffffffffffffffffffffffff161415156114f0576040517f08c379a00000000000000000000000000000000000000000000000000000000081526004016114e790611e52565b60405180910390fd5b600081111515611535576040517f08c379a000000000000000000000000000000000000000000000000000000000815260040161152c90611e32565b60405180910390fd5b80600960008573ffffffffffffffffffffffffffffffffffffffff1673ffffffffffffffffffffffffffffffffffffffff1681526020019081526020016000206000018190555081600960008573ffffffffffffffffffffffffffffffffffffffff1673ffffffffffffffffffffffffffffffffffffffff16815260200190815260200160002060010190805190602001906115d29291906118d6565b50505050565b6060808390506060839050606081518351016040519080825280601f01601f19166020018201604052801561161c5781602001600182028038833980820191505090505b5090506060819050600080905060008090505b85518110156116e257858181518110151561164657fe5b9060200101517f010000000000000000000000000000000000000000000000000000000000000090047f01000000000000000000000000000000000000000000000000000000000000000283838060010194508151811015156116a557fe5b9060200101907effffffffffffffffffffffffffffffffffffffffffffffffffffffffffffff1916908160001a905350808060010191505061162f565b5060008090505b845181101561179c57848181518110151561170057fe5b9060200101517f010000000000000000000000000000000000000000000000000000000000000090047f010000000000000000000000000000000000000000000000000000000000000002838380600101945081518110151561175f57fe5b9060200101907effffffffffffffffffffffffffffffffffffffffffffffffffffffffffffff1916908160001a90535080806001019150506116e9565b50829550505050505092915050565b50805460008255600602906000526020600020908101906117cc9190611956565b50565b828054600181600116156101000203166002900490600052602060002090601f016020900481019282601f106118085780548555611845565b8280016001018555821561184557600052602060002091601f016020900482015b82811115611844578254825591600101919060010190611829565b5b50905061185291906119d5565b5090565b828054600181600116156101000203166002900490600052602060002090601f016020900481019282601f1061189757805160ff19168380011785556118c5565b828001600101855582156118c5579182015b828111156118c45782518255916020019190600101906118a9565b5b5090506118d291906119d5565b5090565b828054600181600116156101000203166002900490600052602060002090601f016020900481019282601f1061191757805160ff1916838001178555611945565b82800160010185558215611945579182015b82811115611944578251825591602001919060010190611929565b5b50905061195291906119d5565b5090565b6119d291905b808211156119ce576000808201600061197591906119fa565b60018201600061198591906119fa565b60028201600061199591906119fa565b6003820160006119a591906119fa565b6004820160006119b591906119fa565b6005820160006119c591906119fa565b5060060161195c565b5090565b90565b6119f791905b808211156119f35760008160009055506001016119db565b5090565b90565b50805460018160011615610100020316600290046000825580601f10611a205750611a3f565b601f016020900490600052602060002090810190611a3e91906119d5565b5b50565b6000611a4e8235611f16565b905092915050565b600082601f8301121515611a6957600080fd5b8135611a7c611a7782611ebf565b611e92565b91508082526020830160208301858383011115611a9857600080fd5b611aa3838284611f32565b50505092915050565b6000611ab88235611f28565b905092915050565b600080600060608486031215611ad557600080fd5b6000611ae386828701611a42565b935050602084013567ffffffffffffffff811115611b0057600080fd5b611b0c86828701611a56565b9250506040611b1d86828701611aac565b9150509250925092565b600060208284031215611b3957600080fd5b600082013567ffffffffffffffff811115611b5357600080fd5b611b5f84828501611a56565b91505092915050565b60008060408385031215611b7b57600080fd5b600083013567ffffffffffffffff811115611b9557600080fd5b611ba185828601611a56565b925050602083013567ffffffffffffffff811115611bbe57600080fd5b611bca85828601611a56565b9150509250929050565b600080600080600060a08688031215611bec57600080fd5b600086013567ffffffffffffffff811115611c0657600080fd5b611c1288828901611a56565b955050602086013567ffffffffffffffff811115611c2f57600080fd5b611c3b88828901611a56565b945050604086013567ffffffffffffffff811115611c5857600080fd5b611c6488828901611a56565b935050606086013567ffffffffffffffff811115611c8157600080fd5b611c8d88828901611a56565b925050608086013567ffffffffffffffff811115611caa57600080fd5b611cb688828901611a56565b9150509295509295909350565b6000611cce82611eeb565b808452611ce2816020860160208601611f41565b611ceb81611f74565b602085010191505092915050565b6000602282527f4f7065726174652074696d65732073686f756c64206c6172676572207468616e60208301527f20300000000000000000000000000000000000000000000000000000000000006040830152606082019050919050565b6000603982527f4f6e6c79206f776e65722063616e206769766520726967687420746f206f706560208301527f726174652074686973204d65646963616c205265636f72642e000000000000006040830152606082019050919050565b6000603382527f596f7520646f6e2774206861766520726967687420746f206f7065726174652060208301527f74686973204d65646963616c205265636f7264000000000000000000000000006040830152606082019050919050565b60006020820190508181036000830152611e2a8184611cc3565b905092915050565b60006020820190508181036000830152611e4b81611cf9565b9050919050565b60006020820190508181036000830152611e6b81611d56565b9050919050565b60006020820190508181036000830152611e8b81611db3565b9050919050565b6000604051905081810181811067ffffffffffffffff82111715611eb557600080fd5b8060405250919050565b600067ffffffffffffffff821115611ed657600080fd5b601f19601f8301169050602081019050919050565b600081519050919050565b600073ffffffffffffffffffffffffffffffffffffffff82169050919050565b6000611f2182611ef6565b9050919050565b6000819050919050565b82818337600083830152505050565b60005b83811015611f5f578082015181840152602081019050611f44565b83811115611f6e576000848401525b50505050565b6000601f19601f830116905091905056fea265627a7a7230582028db683ec865e9770430d95fe76421ebb3c52a4d545fa4c40068b0b320eba6966c6578706572696d656e74616cf50037",
  "source": "pragma solidity ^0.5.0;\r\npragma experimental ABIEncoderV2;\r\n\r\n \r\ncontract MedicalRecord{\r\n\t\r\n\t//Define disease strcut\r\n\r\n\tstruct Disease{\r\n\t\t\r\n\t\tstring diseasetype;\r\n\t\tstring diseasename;\r\n\t\tstring symptom;\r\n\t\tstring treatment;\r\n\t\tstring doctorname;\r\n\t\tstring date;\r\n\t\r\n\t}\r\n\t\r\n\tstruct Owner{ \r\n\t    \r\n\t    string name;\r\n\t    string birthday;\r\n\t    uint sex;\r\n\t    string phone;\r\n\t    string homeaddress;\r\n\t    string email;\r\n\t    address accountaddress;\r\n\t \r\n\t}\r\n\t\r\n\t//MedicalRecord\r\n\t\r\n\tDisease[] records;\r\n\t\r\n\t//Get return records\r\n\t\r\n\tDisease[] ret;\r\n\t\r\n\t//Define doctor\r\n\t\r\n\tstruct Doctor{\r\n\t\t\r\n\t\tuint operatetime;\r\n\t\tstring name;\r\n\t\t\r\n\t}\r\n\t\r\n\t//MedicalRecord's owner\r\n\t\r\n\tOwner owner;\r\n\t\r\n\t//doctor who has right to operate this MedicalRecord\r\n\t\r\n\tmapping(address => Doctor) authorizedoctor;\r\n\t\r\n\t//Owner's information\r\n\t\r\n\tconstructor(string memory name, string memory birthday, uint sex, string memory phone, string memory homeaddress, string memory email) public{\r\n\t\t\r\n\t\towner.accountaddress = msg.sender;\r\n\t\towner.name = name;\r\n\t\towner.birthday = birthday;\r\n\t\towner.sex = sex;\r\n\t\towner.phone = phone;\r\n\t\towner.homeaddress = homeaddress;\r\n\t\towner.email = email;\r\n\t\t\r\n\t\r\n\t}\r\n\t\r\n\tfunction strConcat(string memory _a, string memory _b) public returns (string memory){\r\n        bytes memory _ba = bytes(_a);\r\n        bytes memory _bb = bytes(_b);\r\n        string memory str = new string (_ba.length + _bb.length);\r\n        bytes memory bret = bytes(str);\r\n        uint k = 0;\r\n        for (uint i = 0; i < _ba.length; i++)bret[k++] = _ba[i];\r\n        for (uint i = 0; i < _bb.length; i++) bret[k++] = _bb[i];\r\n        return string(str);\r\n   }\r\n\t\r\n\t//give right to a doctor to operate this MedicalRecord\r\n\t\r\n\tfunction giveRightToOperate(address doctor,string memory name, uint times) public {\r\n\t    \r\n\t\trequire(msg.sender == owner.accountaddress,\"Only owner can give right to operate this Medical Record.\");\r\n\t\trequire(times > 0, \"Operate times should larger than 0\");\r\n\t\tauthorizedoctor[doctor].operatetime = times;\r\n\t\tauthorizedoctor[doctor].name = name;\r\n\t\t\r\n\t}\r\n\t\r\n\tevent returnValue(\r\n\t        address indexed _from,\r\n\t\t    string _value\r\n\t);\r\n\t\r\n\tfunction getRecord(string memory diseasetype) public{\r\n\t\tDoctor storage doctor = authorizedoctor[msg.sender];\r\n\t\trequire(doctor.operatetime > 0 || msg.sender == owner.accountaddress, \"You don't have right to operate this Medical Record\");\r\n\t    if(ret.length > 0)delete ret;\r\n\t\t\r\n\t\tfor(uint i = 0; i < records.length; i ++){\r\n\t\t    if(bytes(diseasetype).length == bytes(records[i].diseasetype).length){\r\n\t\t        uint j = 0;\r\n\t\t        for (; j < bytes(diseasetype).length; j ++) {\r\n                    if(bytes(records[i].diseasetype)[j] != bytes(diseasetype)[j]) {\r\n                        break;\r\n                    }\r\n                }\r\n                if(j >= bytes(diseasetype).length){\r\n                    ret.push(records[i]);\r\n                }\r\n\t\t    }\r\n\t\t}\r\n\t\tdoctor.operatetime = doctor.operatetime - 1;\r\n\t\t\r\n\t\tstring memory result = \"\";\r\n\t\tresult = strConcat(result, \"Personal information:\\n\");\r\n\t\tresult = strConcat(result, \"\\nname: \");\r\n\t\tresult = strConcat(result, owner.name);\r\n\t\tresult = strConcat(result, \"\\nbirthday: \");\r\n\t\tresult = strConcat(result, owner.birthday);\r\n\t\tresult = strConcat(result, \"\\ngender: \");\r\n\t\tif(owner.sex == 1){\r\n\t\t    result = strConcat(result, \"male\");\r\n\t\t}\r\n\t\telse{\r\n\t\t    result = strConcat(result, \"female\");\r\n\t\t}\r\n\t\tresult = strConcat(result, \"\\nphone: \");\r\n\t\tresult = strConcat(result, owner.phone);\r\n\t\tresult = strConcat(result, \"\\nhome address: \");\r\n\t\tresult = strConcat(result, owner.homeaddress);\r\n\t\tresult = strConcat(result, \"\\nemail: \");\r\n\t\tresult = strConcat(result, owner.email);\r\n\t\tresult = strConcat(result, \"\\n\\n\\n\\nMedical Record:\");\r\n        \r\n        \r\n        for(uint i = 0; i < ret.length; i ++){\r\n            result = strConcat(result, \"\\n\\ndiseasetype: \");\r\n            result = strConcat(result, ret[i].diseasetype);\r\n            result = strConcat(result, \"\\ndiseasename: \");\r\n            result = strConcat(result, ret[i].diseasename);\r\n            result = strConcat(result, \"\\nsymptom: \");\r\n            result = strConcat(result, ret[i].symptom);\r\n            result = strConcat(result, \"\\ntreatment: \");\r\n            result = strConcat(result, ret[i].treatment);\r\n            result = strConcat(result, \"\\ndoctorname: \");\r\n            result = strConcat(result, ret[i].doctorname);\r\n            result = strConcat(result, \"\\ndate: \");\r\n            result = strConcat(result, ret[i].date);\r\n        }\r\n\t\t\r\n\t\temit returnValue(msg.sender,  result);\r\n\t\t\r\n\t}\r\n\t\r\n\tfunction addRecord(string memory _diseasetype, string memory _diseasename,string memory _symptom,string memory _treatment, string memory _date) public {\r\n\r\n\t    Doctor storage doctor = authorizedoctor[msg.sender];\r\n\t    require(doctor.operatetime > 0 || msg.sender == owner.accountaddress, \"You don't have right to operate this Medical Record\");\r\n\t    records.push(Disease({diseasetype:_diseasetype,diseasename:_diseasename,symptom:_symptom,treatment:_treatment,doctorname:doctor.name, date:_date\r\n\t    }));\r\n\t    doctor.operatetime = doctor.operatetime - 1;\r\n\t    \r\n\t}\r\n\t\r\n}",
  "sourcePath": "D:/Study/BlockChain/MedicalRecord/contracts/MedicalRecord.sol",
  "compiler": {
    "name": "solc",
    "version": "0.5.0+commit.1d4f565a.Emscripten.clang"
  },
  "schemaVersion": "3.0.0",
  "updatedAt": "2019-01-01T05:23:23.072Z",
  "devdoc": {
    "methods": {}
  },
  "userdoc": {
    "methods": {}
  }
}